:020000040000FA
:1000000038020020F100000017010000D5000000B8
:1000100000000000000000000000000000000000E0
:100020000000000000000000000000001B010000B4
:1000300000000000000000001D0100001F01000082
:100040002101000021010000210100002101000028
:100050002101000021010000210100002101000018
:10006000210100008D0C0000210100002101000091
:10007000D50C0000210100005905000021010000FD
:1000800021010000210100002101000021010000E8
:1000900021010000210100002101000021010000D8
:1000A00021010000210100002101000021010000C8
:1000B00021010000210100002101000021010000B8
:1000C0000348854600F09AF800480047E114000014
:1000D0003802002004207146084202D0EFF3098064
:1000E00001E0EFF308807146004A10471505000053
:1000F0000C480D4901600D4901600D4901600D4A30
:100100000D4911600D4A0E491160002101600D4832
:1001100080470D480047FEE7FEE7FEE7FEE7FEE703
:10012000FEE700000001004059000000160000003A
:100130008800000024000040A55A00008002004012
:1001400001000000710B0000C100000030B50B463B
:10015000014600202022012409E00D46D5409D42A1
:1001600005D31D469540491B254695404019154627
:10017000521E002DF1DC30BD03460B439B0703D01C
:1001800009E008C9121F08C0042AFAD203E00B785C
:100190000370401C491C521EF9D27047F0B51FB4C1
:1001A0000646002082B005464024019100901BE0E5
:1001B000019922460F46304600F042F8049A059B0A
:1001C000801A994110D310461946224600F028F8AB
:1001D000361A8F410197224601200021009F00F02E
:1001E0001FF838184D4100902046641E0028DFDCBF
:1001F000019B00982946324607B0F0BD064C012508
:10020000064E05E0E36807CC2B430C3C98471034BE
:10021000B442F7D3FFF758FF84160000A41600007D
:1002200010B5202A04DB0146203A9140002010BD81
:10023000914020239C1A0346E3401943904010BD8F
:1002400010B5202A04DB0846203AD040002110BD1A
:100250000B46D340D0402024A21A914008431946AF
:1002600010BD00000EB509490EC900910192810F21
:100270008A00029369468A58054951184A68C3069C
:10028000DB0E0120984002434A600EBD04160000B8
:100290000002004002490A6802430A6070470000F9
:1002A0000002004010B500F019FC0148006810BDC4
:1002B0000000002010B500F011FC0148006810BDDE
:1002C0000000002002480068C00700D001487047C5
:1002D000000200400048E80104480068800702D599
:1002E0000120C0037047002070470000000200405A
:1002F00010B500F0F3FB0448406B41070348490F79
:100300000068C84010BD000000020040000000204E
:1003100010B500F0E3FB0448406B4006410F034872
:100320000068C84010BD000000020040000000202E
:1003300008B511A000681149009009680020052245
:100340001204114216D1080301D50D4800E00D48F2
:100350008A030FD40A04920F6B469B5CCA0589047A
:10036000D20DC90E891C8008921C59435043FFF7D7
:10037000EDFE800008BD00000102020440020040C2
:10038000001BB7000048E80108B511A0006811493A
:1003900000900968002005221204114216D10803BA
:1003A00001D50D4800E00D488A030FD40A04920FCE
:1003B0006B469B5CCA058904D20DC90E891C800856
:1003C000921C59435043FFF7C1FE800008BD000056
:1003D0000102020440020040001BB7000048E8018F
:1003E000F3B5124881B005690F4610200F4C054047
:1003F000403C2068042630432060102000F050F874
:100400002069072108432061206A00090001384360
:1004100020622069884301990843206100F05EFB57
:10042000002D02D12068B0432060FEBD4002004094
:10043000F0B5194B88B0F0CB009401ACE0C478CB98
:1004400004AF78C7840A23061B0E0ED003039B0F4C
:100450009B0004ADEB58114D5B19E5B28405E40E29
:10046000A5401C68AC4314431C60420E520710D0D8
:100470008200920F92006B469A58084B103BD2189C
:1004800003015B0FC001C00E83401068984308430E
:10049000106008B0F0BD0000E4150000200200402C
:1004A00010B504460749084B05E00A46491E002AD4
:1004B00001DC002010BD1A6920469043F5D10120CF
:1004C00010BD000080F520004002004010B5064C31
:1004D00001229103204600F009F80122D1032046B1
:1004E00000F004F810BD000040400040F0B50023CB
:1004F00001273C469C400C4208D005685C0003265E
:10050000A640B5431646A640354305605B1C102B3C
:10051000EFD3F0BD044603A000F052FD204600F0EA
:10052000F5FFFEE7496E2048617264204661756CF4
:10053000742048616E646C65720A0000BFF34F8FCF
:1005400004490348C860BFF34F8F00BFFDE70000B8
:100550000400FA0500ED00E0F8B5164D164E2C46E5
:10056000103C04E0316B60882954401C6080706945
:10057000C005F7D50127BF023946304600F0A7F87D
:10058000002805D107E0306B6288A854521C6280B5
:100590007069C005F7D56088042809D3394630460C
:1005A00000F011F86068022108436060002060805C
:1005B000F8BD0000200000200010064081680922DC
:1005C000914381607047CA0704D0026801235B042D
:1005D0009A4302608A0704D5826801231B039A4369
:1005E00082604A0704D5826801235B039A438260D4
:1005F0000A0704D5826801235B029A438260CA0617
:1006000004D58268FF2301339A4382604A0603D5EA
:10061000026980239A4302610A0603D5026908230E
:100620009A430261CA0503D5026904239A43026111
:100630008A0503D5026920239A430261490503D53F
:1006400001691022914301617047CA0704D0026812
:1006500001235B041A4302608A0704D582680123E0
:100660001B031A4382604A0704D5826801235B0397
:100670001A4382600A0704D5826801235B021A4389
:100680008260CA0604D58268FF2301331A43826060
:100690004A0603D5026980231A4302610A0603D57C
:1006A000026908231A430261CA0503D502690423BB
:1006B0001A4302618A0503D5026920231A430261A5
:1006C000490503D5016910221143016170470246B3
:1006D0000020CB0703D053699B0700D501208B076F
:1006E00004D553695B0701D5022318434B0704D592
:1006F00053691B0701D5042318430B0704D553691D
:100700001B0601D508231843CB0604D553695B06A5
:1007100001D5102318434B0604D553691B0301D59B
:10072000402318430B0604D553695B0301D580238E
:100730001843CB0505D553695B0502D5FF2301336B
:1007400018438B0505D553691B0502D501235B02B0
:100750001843490505D55169C90402D5012189020B
:100760000843704738B50648064C00902023042201
:100770000021204600F0A2F82046FFF71FFF38BDF9
:1007800000350C000010064070B5244D0024686848
:1007900080070ED5686802218843686028460421D6
:1007A000103000F067FE28460422FF21103000F0D0
:1007B000A6FE6868000730D568680821884368602D
:1007C00016480422FF210C3000F099FE0422511F2C
:1007D000134800F094FE68681022C10600291048F2
:1007E00069680BDA914369600E492246A3000A4307
:1007F000641CA4B2C250042CF7D30AE01143696010
:10080000094A2146A3001143641CA4B2C150042C20
:10081000F7D30421024800F033F870BD1000002027
:1008200024000020705634122043658770B51049AB
:100830000020104AFF230C1D0854850050512354FA
:10084000401C80B20428F7D30B4C032211462046EB
:1008500000F0C2F821152046FFF7F7FE04490020FA
:100860000C3908804880012004498003086070BD6D
:100870001C000020240000200010064000E100E0E1
:1008800030B50D4B00229C680C25AC4301252C4350
:100890009C6007E0940004591C62521C92B25C698F
:1008A000E407FCD18A42F5D39868082188430521E2
:1008B0000843986030BD000000100640FFB50446B4
:1008C00081B040480A9D1E46844202D0002005B0F7
:1008D000F0BD206E400840002066202E00D100268A
:1008E000FFF7E8FC07460299012200233648002959
:1008F00015D0A360029D31022943039D2943114372
:100900002160636004468069302188432030A06103
:10091000FFF7D0FC616B4907490F491C4EE00021ED
:10092000A160039B3102194311432160BD4204D3EE
:100930008169302291432031816181698906890F63
:1009400012D081698906890F01290FD08169890632
:10095000890F02290DD01D4EBD4201D2B54211D3DF
:10096000002060603046B2E7194EF5E7FFF70CFD56
:1009700006E0406B4107490F3846491CFFF7E6FB8C
:100980000646E9E7134F002D0CD030460A214843B4
:100990002946FFF7DBFB0A21401DFFF7D7FB401E6E
:1009A000FF2804D9606838436060300A8FE76168C7
:1009B000490A490201436160411C3046FFF7C6FB0A
:1009C00085E700000010064000020040006CDC02D9
:1009D0000048E801FF01000010B5036977242406F0
:1009E000A34309070B4311060B43036110BD00002D
:1009F00070B55920254C1621882220602160226084
:100A00002368002BF9D00520FFF744FC1120FFF7E5
:100A100047FD0A20FFF73EFC0A20FFF741FD0021B9
:100A20000720FFF7DDFC1A4D2846FFF71BFC0321CA
:100A3000002209062846FFF7FBFC164D2846FFF763
:100A400011FC0721002209032846FFF7F1FC124D93
:100A5000002230212846FFF7EBFC2846FFF702FC76
:100A6000A807016B090C09040163016B0B4A1143D0
:100A70000163C16BFF22120491433322520489188F
:100A8000C16300F02BF80020206070BD0001004021
:100A9000103D805F0300C05E0D00406644440000CE
:100AA0000121020E890751188B68012282401343ED
:100AB0008B608868904388607047000006498A69A7
:100AC0001202FCD40A2804D10D220A608A6912029B
:100AD000FCD408607047000000000740F8B51D4DC9
:100AE00028691C4944071CA000680090640F00207E
:100AF0004031096805221204114216D1080301D5BC
:100B0000164800E016488A030FD40A04920F6B4679
:100B10009B5CCA058904D20DC90E891C8008921CF1
:100B200059435043FFF712FB80000E4E022CB06079
:100B300002D00D49A0000858296A0907090F491C6D
:100B4000FFF704FB094930604A108018FFF7FEFAEE
:100B50007060F8BD0002004001020204001BB700F3
:100B60000048E80100000020C415000040420F00CA
:100B700010B559210A4816238822016003600260DB
:100B80000468002CF9D007490B680722120593432B
:100B90000B600B6813430B600021016010BD000067
:100BA000000100400002004010B50A4C7D220121E6
:100BB000D200C906204600F049F820682106084303
:100BC00020600815044908602068890508432060F2
:100BD00010BD00002000054000E100E010B588B025
:100BE0000446202215496846FFF7C6FA144B144AFA
:100BF00014482033944202D14069000A0BE09C4221
:100C000002D14069000B06E00F4940698C4201D1D6
:100C1000000C00E0000D4107490F022904D08800B4
:100C20006946085808B010BD944201D09C4202D1D8
:100C3000FFF75EFBF6E7FFF76BFBF3E71C16000020
:100C4000000005400002004000100540F7B51746BF
:100C50000646FFF7C3FF054600244008B84201D806
:100C6000022008E039462846FFF770FA040E02D049
:100C7000611CFFF76BFA0199214331607060641CBD
:100C8000604301462846FFF761FAFEBD70B50E4885
:100C90008168C907C90F16D00125856000F08AFC5C
:100CA0000A4CA0687D21C900FFF750FA002903D142
:100CB0000748816B69408163A068C00703D1606801
:100CC00008210843606070BD20000540100000202E
:100CD0004048004010B50B4CE06911210902084260
:100CE00002D104E000F044F9A1694904FAD5A169F0
:100CF00020467122114203D00921890200F07EF8BA
:100D000010BD00000000074010B51848FFF7C8FEEE
:100D1000174CE1214902204600F090F811212046AD
:100D200000F088F80120134900030860FFF7BAFAC1
:100D3000014611A000F044F9FFF7C4FA014615A0DE
:100D400000F03EF9FFF7C8FA014618A000F038F9A4
:100D5000FFF7CEFA01461BA000F032F9FFF7D8FAF0
:100D600001461FA000F02CF910BD00001000000487
:100D70000000074000E100E00D0A434C4B5F47656F
:100D80007443505546726571203A202538640D0A27
:100D900000000000434C4B5F47657448585446724E
:100DA0006571203A202538640D0A0000434C4B5FE2
:100DB0004765744C585446726571203A2025386452
:100DC0000D0A0000434C4B5F47657450434C4B3059
:100DD00046726571203A202538640D0A0000000033
:100DE000434C4B5F47657450434C4B3146726571C1
:100DF000203A202538640D0A00000000CA0102D5FF
:100E000001221204C2614A0503D5702282610822C0
:100E100082610A0503D5426901231A4342618A04AB
:100E200001D5034A8261490401D51F2141647047FD
:100E30000100000142680A4342607047F0B587B084
:100E40000F46044600252E4618223E496846FFF705
:100E500093F93D493D483E4A8C4204D14369006ABA
:100E60005B015D0F1FE03B4B9C4204D14369006A6C
:100E70005B005D0F22E0944204D1C369006B5B010B
:100E80005D0F11E0344B9C4206D1C369006B5B00DF
:100E90005D0F0006060F13E0304B9C4207D1C3697B
:100EA000006B5B035D0F000A0607360F08E02C4B52
:100EB0009C4205D1C369006B5B025D0F0004060F05
:100EC000002020630320E060A068264B1840A0604B
:100ED000012D02D0042D04D013E0FFF729FA019070
:100EE0000FE08C4207D0944205D01C48844202D0C7
:100EF0001D48844202D1FFF7FBF901E0FFF708FA31
:100F00000490002F1BD0A90068464058711CFFF7C1
:100F10001DF90546790840183946FFF717F91349B6
:100F2000801E884207D9F90068183946FFF70EF984
:100F30000009801E02E0032109070843606207B030
:100F4000F0BD00003C160000000007400002004019
:100F500000200740001007400030074000400740D5
:100F6000005007400FFFF0FF00600740FFFF000048
:100F700010B50D480068C0B2782813D0582811D099
:100F80007F2803D909A000F01BF810BD5A2809D00A
:100F900004DC3128F9D05828F7D103E0782801D0B3
:100FA0007A28F2D1FFF7CAFA00000740696E76612D
:100FB0006C696420636F6D6D616E640D0A000000E2
:100FC0000FB410B503A9044B044A029800F018F8B6
:100FD00010BC08BC04B01847D51400000C00002059
:100FE00002E008C8121F08C1002AFAD170477047F2
:100FF000002001E001C1121F002AFBD17047000050
:10100000FFB591B00F460546002606E025280AD018
:10101000149A139990476D1C761C28780028F5D1F6
:10102000304615B0F0BD002400940121F34A02942B
:1010300000E004436D1C2B780846203B984010428A
:10104000F7D128782A280ED0022128780246303A93
:10105000092A15D8009A0A235A43303A80180C43BB
:101060006D1C0090F1E701CF0090002805DA012007
:1010700040030443009840420090022004436D1C4A
:1010800028782E2815D10420044368786D1C2A285E
:101090000AD101CF6D1C02900BE002990A22514344
:1010A000303940186D1C02902878014630390929E2
:1010B000F3D928786C2810D006DC4C281AD0682880
:1010C0000ED06A2817D104E0742813D07A2812D1E0
:1010D00010E00120400504430CE00121090501E076
:1010E000032109050C436978814203D101200005E1
:1010F00024186D1C6D1C287803906E281ED00CDC03
:10110000632831D004DC00288AD0582811D1B2E0FD
:1011100064287BD069280CD178E073282DD004DCBA
:101120006F2870D0702804D1A7E075286CD078287B
:101130006BD0149A13999047761C62E06002400FBE
:10114000022807D003280AD0042838680AD006608D
:101150003F1D56E03868F11706604160F8E73868CF
:101160000680F5E70670F3E73878694608740020D2
:10117000487404A80390012003E03868039000201D
:10118000C0433F1D61070FD5002101E00199491CB3
:10119000029A0191914213DA8142F7DB019A039995
:1011A000895C0029F2D10BE0002101E00199491C82
:1011B00001918142FADB019A0399895C0029F5D1FA
:1011C00001990098139A401A00902146149B00F050
:1011D0003BF901998019461807E0039803990078B4
:1011E000491C0391149A139990470198401E01904D
:1011F000401CF2D12146149B139A009800F014F978
:1012000086196D1C09E741E033E034E00A20002133
:10121000049005916002410F022905D001CFC21749
:101220009446032905D007E0FF1DFF08FF0003CF08
:1012300006E000B2C2179446042902D140B2C11799
:101240008C4600226146944506DA0A460021404257
:1012500091418C462D2102E0210504D52B216A46BF
:101260001176012103E0E10701D02021F7E7019188
:1012700054E00A200BE0102009E010200490002127
:101280000420044308200591029003E00820002177
:10129000059104906002410F022905D001CF002280
:1012A0009446032906D006E0FF1DFF08FF0003CF88
:1012B0008C4603E080B2042900D1C0B20021019124
:1012C00021072BD50399702906D0049A1021059B7C
:1012D0004A401A4305D00EE040216A4611760121AA
:1012E00008E06146014306D030216A461176039931
:1012F000517602210191049A0821059B4A401A4324
:101300000CD16146014301D1610707D530216A46FE
:101310001176012101910299491E029103995829E0
:1013200004D037A103910FA90F910DE039A1F9E77E
:101330006146059B049AFEF731FF039B8C469B5C3C
:101340000F9A521E0F92137061460143F0D10F980D
:1013500007A9081A20300390600704D50120000473
:101360008443029801E0012002900399884201DD44
:10137000401A00E0002041180290019809180098D6
:10138000401A0090E00306D42146149B139A00985B
:1013900000F05AF886190020049008E006A9085CBD
:1013A000149A139990470498401C761C0490019954
:1013B0008842F3DBE0030CD52146149B139A009876
:1013C00000F042F8861904E0149A302013999047EF
:1013D000761C0299481E02900029F5DC08E00F985F
:1013E0000F990078491C0F91149A13999047761C15
:1013F0000399481E03900029F1DCFBE6092801004F
:10140000303132333435363738396162636465667A
:10141000000000003031323334353637383941423C
:101420004344454600000000F8B5044600251E462A
:101430001746880404D405E039462020B0476D1CC7
:10144000641EF9D52846F8BDFFB50446002581B0D5
:101450001E46C80301D5302700E02027880404D5A4
:1014600005E038460399B0476D1C641EF9D528463F
:1014700005B0F0BDF8B506460D4600240BA0FFF7F9
:101480009FFD01277F070BE0315D0DA0FFF798FD61
:101490006007F84202D10CA0FFF792FD641CA4B2D1
:1014A000AC42F1DB09A0FFF78BFDF8BD64756D70F0
:1014B0005F627566666572203A202532640D0A0007
:1014C00030782532582C00000D0A00000D0A0D0A54
:1014D0000000000010B50446FFF7F0FA204610BDEA
:1014E000FFF786FAFFF710FCFFF73CF9FFF79EF9CC
:1014F000FEF7ECFFFFF758FBFFF746F9FCE7C9B230
:1015000001E00170401C521EFBD2704710B504462A
:10151000016810A0FFF754FD11A06168FFF750FDAE
:1015200012A0A168FFF74CFD13A0E168FFF748FD8A
:1015300014A02169FFF744FD15A06169FFF740FD84
:1015400016A0A169FFF73CFD17A0E169FFF738FD80
:1015500010BD0000723020203D20307825780A0030
:10156000723120203D20307825780A007232202008
:101570003D20307825780A00723320203D203078D5
:1015800025780A00723132203D20307825780A0013
:101590006C7220203D20307825780A00706320206E
:1015A0003D20307825780A00707372203D20307815
:1015B00025780A0002488168491C81607047000054
:1015C000100000200048E8010080000000D8B805A5
:1015D00000960000006CDC0200000000000000002B
:1015E000006CDC02000000000400000008000000A5
:1015F0000C000000000000000000000000000000DF
:1016000010000000000000000400000008000000BE
:101610000000000004000000080000000048E8018D
:10162000008000000000000000000000000000003A
:101630000096000000000000006CDC020048E80199
:101640000000000000800000006CDC0200000000D0
:10165000009600000048E801000000000080000043
:10166000006CDC0200000000009600000048E80169
:101670000000000000800000006CDC0200000000A0
:1016800000960000A41600000000002024000000C6
:10169000E00F0000C8160000240000201402000023
:1016A000F00F000000D8B8056000000000D8B805B1
:1016B000000000000000000000000000000000002A
:0816C000000000000000000022
:04000005000000F106
:00000001FF
